:020000040800F2
:10000000D80F002071020008454C0008714B000811
:10001000194C0008E5150008A9620008000000005E
:100020000000000000000000000000002553000850
:100030005F38000800000000D14E00080D5900088C
:100040008B0200088B0200088B0200088B0200085C
:100050008B0200088B0200088B0200088B0200084C
:100060008B0200088B0200088B0200088B0200083C
:100070008B0200088B0200088B0200088B0200082C
:100080008B0200088B0200088B0200088B0200081C
:100090008B0200088B0200088B0200088B0200080C
:1000A0008B0200088B0200088B0200088B020008FC
:1000B0008B020008995B00088B0200088B02000885
:1000C0008B0200088B0200088B0200088B020008DC
:1000D0008B020008255E0008515E00088B020008B4
:1000E0008B0200088B0200088B0200088B020008BC
:1000F0008B0200088B0200088B0200088B020008AC
:100100008B0200088B0200088B0200088B0200089B
:100110008B0200088B0200088B0200088B0200088B
:100120008B0200088B0200088B0200088B0200087B
:100130008B0200088B0200088B0200088B0200086B
:10014000551600088B0200088B0200088B0200087D
:100150008B0200088B0200088B0200088B0200084B
:100160008B0200088B0200088B0200088B0200083B
:100170008B0200088B0200088B0200088B0200082B
:100180008B0200088B02000800F002F800F061F812
:100190000AA090E8000C82448344AAF10107DA45E2
:1001A00001D100F056F8AFF2090EBAE80F0013F0D3
:1001B000010F18BFFB1A43F00103184744850000E4
:1001C000648500000A444FF0000C10F8013B13F066
:1001D000070408BF10F8014B1D1108BF10F8015BA0
:1001E000641E05D010F8016B641E01F8016BF9D193
:1001F00013F0080F1EBF10F8014BAD1C0C1B09D1EA
:100200006D1E58BF01F801CBFAD505E014F8016B5B
:1002100001F8016B6D1EF9D59142D6D370470000ED
:100220000023002400250026103A28BF78C1FBD8FF
:10023000520728BF30C148BF0B607047642900F0E7
:100240004580002070471FB508F091F91FBD10B51B
:1002500010BD00F023FA1146FFF7F5FF06F0D2FCBF
:1002600000F041FA03B4FFF7F2FF03BC06F0ADFA69
:100270000948804709480047FEE7FEE7FEE7FEE73A
:10028000FEE7FEE7FEE7FEE7FEE7FEE70448054976
:10029000054A064B70470000915900088901000883
:1002A000D8090020D80F0020D80B0020D80B002040
:1002B000704700000FB4044910B503AA029800F07B
:1002C000CFF910BC5DF814FB6C0000202DE9F04163
:1002D0000646002410687529314616A510D0AFF3E4
:1002E0000080002802DA404213A507E031688A073F
:1002F00001D512A502E0490704D511A5012401E0AA
:10030000AFF3008000210A2206F1240709E0B0FBC8
:10031000F2FCB0FBF2F302FB1C00303078541846BC
:10032000491C0028F3D123462A463046BDE8F04157
:1003300000F024B9000000002D0000002B00000098
:10034000200000002DE9F05F894604464FF0000AC6
:10035000DFF874B1FB44C0F820A02046E16888476C
:10036000002874D0252806D0D4E901219047206ABE
:10037000401C2062F1E700265F462046E16888477E
:100380002028054607DB312D05D2781910F8200CFE
:1003900008B10643F1E7B00701D526F00406C4F81A
:1003A0001CA00027C4F818A02A2D09D0284606F062
:1003B00005FA38B304EB8708303DC8F8185019E047
:1003C00059F8041B204604EB87029161E1688847D5
:1003D000012F054618D1E069002820DA26F0200612
:1003E0001DE0D8F8180000EB800005EB4000303825
:1003F000C8F818002046E1688847054606F0DEF98F
:100400000028EED1012F0AD02E2D08D12046E16818
:1004100088477F1C0546022F46F02006C4DBA069F2
:10042000002803DA404246F00106A061F00701D03F
:1004300026F010066C2D0BD0682D09D04C2D39D02C
:100440006A2D35D0742D35D07A2D33D016E038E0B2
:10045000E1682F4620468847B842054609D16C2FEF
:1004600026D04FF48060E168064320468847054661
:1004700004E06C2F1AD04FF4807006430DB3A5F141
:100480004100192802D8203546F400664A4629461C
:10049000204626604E46FFF7D1FE80B101280BD0E2
:1004A000F61D26F0070000F1080956E74020E4E7B2
:1004B0008020D8E70020D6E706F104094DE728465A
:1004C00052E7206ABDE8F09F768300004FF00002FB
:1004D0000429C0F0128010F0030C00F01B80CCF156
:1004E000040CBCF1020F18BF00F8012BA8BF20F8C4
:1004F000022BA1EB0C0100F00DB85FEAC17C24BF18
:1005000000F8012B00F8012B48BF00F8012B7047C1
:100510004FF0000200B5134694469646203922BF9C
:10052000A0E80C50A0E80C50B1F12001BFF4F7AFE7
:10053000090728BFA0E80C5048BF0CC05DF804EBC9
:10054000890028BF40F8042B08BF704748BF20F837
:10055000022B11F0804F18BF00F8012B7047704735
:1005600070477047704710B500F08CF8006810BDF8
:1005700010B5044600F086F8046010BD2DE9F04780
:100580000D4699469246044600F124080168880603
:1005900004D5E06921F01001216000E00120A842AB
:1005A00001DD471B00E00027A1697A1902EB090071
:1005B000081AA0612078C00602D42046AFF300805C
:1005C000002608E0D4E901211AF806009047206AC5
:1005D000401C761C20624E45F4DB2078C0060AD50C
:1005E0002046AFF3008006E0D4E901213020904797
:1005F000206A401C2062381EA7F10107F4DC07E0E6
:10060000D4E9012118F805009047206A401C2062B7
:10061000281EA5F10105F3DC2046AFF30080207809
:10062000000602D50220BDE8F0870120FBE70000AC
:1006300001694A1C02610878704700B58FB0CDE9A6
:1006400001310021059105497944CDE90310114696
:100650006846FFF777FE0FB000BD0000E5FFFFFF23
:10066000074B70B50D467B44FFF7E7FF044628466D
:1006700000F00CF810B14FF0FF3070BD204670BD97
:10068000976100000048704778090020007B00F067
:100690008000704700487047780900207546FFF7D2
:1006A000F9FFAE4605006946534620F0070085462F
:1006B00018B020B5FFF7EAFDBDE820404FF0000676
:1006C0004FF000074FF000084FF0000B21F007013A
:1006D000AC46ACE8C009ACE8C009ACE8C009ACE87D
:1006E000C0098D46704710B50446AFF30080204620
:1006F000BDE81040FFF7B6BD10B5FE480078E8B37E
:100700000020FC490870FC48008A04EE900AF8EECC
:10071000644AB0EE644AF848C08904EE900AF8EEE4
:10072000644AF0EE643AF448808904EE900AF8EEE8
:10073000644AB0EE643AF048408904EE900AF8EE5C
:10074000644AF0EE642AEC48008904EE900AF8EE60
:10075000644AB0EE642AE848C08804EE900AF8EED5
:10076000644AF0EE641AE448808804EE900AF8EED9
:10077000644AB0EE641AE048408800E010E004EEFD
:10078000900AF8EE644AF0EE640ADB48008804EE52
:10079000900AF8EE644AB0EE640A012000F0ECFC26
:1007A000D4484078E8B30020D2494870D248408C01
:1007B00004EE900AF8EE644AB0EE644ACE48008C2B
:1007C00004EE900AF8EE644AF0EE643ACA48C08B30
:1007D00004EE900AF8EE644AB0EE643AC648808BA4
:1007E00004EE900AF8EE644AF0EE642AC248408BA8
:1007F00004EE900AF8EE644AB0EE642ABE48008B1C
:1008000004EE900AF8EE644AF0EE641ABA48C08A20
:1008100004EE900AF8EE644AB0EE641AB648808A94
:1008200000E010E004EE900AF8EE644AF0EE640A8C
:10083000B148408A04EE900AF8EE644AB0EE640AC9
:10084000022000F099FCAB488078E8B30020A94969
:100850008870A948808E04EE900AF8EE644AB0EEE3
:10086000644AA548408E04EE900AF8EE644AF0EE21
:10087000643AA148008E04EE900AF8EE644AB0EEA5
:10088000643A9D48C08D04EE900AF8EE644AF0EE9A
:10089000642A9948808D04EE900AF8EE644AB0EE1E
:1008A000642A9548408D04EE900AF8EE644AF0EE12
:1008B000641A9148008D04EE900AF8EE644AB0EE96
:1008C000641A8D48C08C00E010E004EE900AF8EE47
:1008D000644AF0EE640A8848808C04EE900AF8EED0
:1008E000644AB0EE640A032000F046FC8148C078F8
:1008F000E8B300207F49C8707F48B0F8460004EE96
:10090000900AF8EE644AB0EE644A7B48B0F84400BE
:1009100004EE900AF8EE644AF0EE643A7648B0F8D5
:10092000420004EE900AF8EE644AB0EE643A72486F
:10093000B0F8400004EE900AF8EE644AF0EE642A43
:100940006D48C08F04EE900AF8EE644AB0EE642A57
:100950006948808F04EE900AF8EE644AF0EE641A5B
:100960006548408F04EE900AF8EE644A00E014E017
:10097000B0EE641A6048008F04EE900AF8EE644A04
:10098000F0EE640A5C48C08E04EE900AF8EE644A09
:10099000B0EE640A042000F0EFFB56480079E0B3A3
:1009A0000020544908715448B0F8580004EE900AE9
:1009B000F8EE644AB0EE644A4F48B0F8560004EED0
:1009C000900AF8EE644AF0EE643A4B48B0F85400EE
:1009D00004EE900AF8EE644AB0EE643A4648B0F885
:1009E000520004EE900AF8EE644AF0EE642A42489F
:1009F000B0F8500004EE900AF8EE644AB0EE642AB3
:100A00003D48B0F84E0004EE900AF8EE644AF0EE6D
:100A1000641A3948B0F84C0000E01AE004EE900A7D
:100A2000F8EE644AB0EE641A3348B0F84A0004EEB7
:100A3000900AF8EE644AF0EE640A2F48B0F84800D5
:100A400004EE900AF8EE644AB0EE640A052000F065
:100A500093FB28484079E0B3002026494871264896
:100A6000B0F86A0004EE900AF8EE644AB0EE644A08
:100A70002148B0F8680004EE900AF8EE644AF0EEFF
:100A8000643A1D48B0F8660004EE900AF8EE644A35
:100A9000B0EE643A1848B0F8640004EE900AF8EE3C
:100AA000644AF0EE642A1448B0F8620004EE900A3A
:100AB000F8EE644AB0EE642A0F48B0F8600004EE25
:100AC000900AF8EE644AF0EE641A0B48B0F85E0043
:100AD00000E01FE004EE900AF8EE644AB0EE641AFB
:100AE0000548B0F85C0004EE900AF8EE644AF0EEB7
:100AF000640A03E098070020A20700200648B0F827
:100B00005A0004EE900AF8EE644AB0EE640A062039
:100B100000F032FB10BD0000A207002070B50446B3
:100B20000D46681DC5B20026002004E0215C31445A
:100B3000CEB2411CC8B2691E8142F7DC601910F8C0
:100B4000010CB04200D070BD2078AA2802D1607894
:100B5000AF2800D0F7E7A078012824D12079012818
:100B600005D1E7A0FFF7A6FB0120EA49087220792A
:100B7000022805D1E8A0FFF79DFB0120E549487256
:100B80002079042805D1E7A0FFF794FB0120E14973
:100B9000C8712079052805D1E6A0FFF78BFB01205D
:100BA000DC49887100BFA07802281DD12079012876
:100BB0000BD100F0E1FB0120D64908704870887025
:100BC000C87008714871FFF797FD2079A1280BD1F3
:100BD00000F0CAFB0120CF49087048708870C870C7
:100BE00008714871FFF788FDA078102839D1607925
:100BF000217940EA0120D3490880E079A17940EACF
:100C00000120D0494880607A217A40EA0120CD490C
:100C10008880E07AA17A40EA0120CA49C880607BD6
:100C2000217B40EA0121C7480181E07BA17B40EAAA
:100C30000121C4484181607C217C40EA0120C149F6
:100C40008881E07CA17C40EA0121BE48C181607DB1
:100C5000217D40EA0121BB480182A078314600F0A5
:100C60005FFAA078112839D16079217940EA012012
:100C7000B4494882E079A17940EA0121B1488182F2
:100C8000607A217A40EA0121AE48C182E07AA17AF5
:100C900040EA0120AB490883607B217B40EA0121C7
:100CA000A8484183E07BA17B40EA0121A5488183DC
:100CB000607C217C40EA0120A249C883E07CA17CC1
:100CC00040EA01219F480184607D217D40EA0121A5
:100CD0009C484184A078314600F022FAA07812287E
:100CE00039D16079217940EA012096498884E079F8
:100CF000A17940EA01219348C184607A217A40EACF
:100D0000012190480185E07AA17A40EA01208D49CD
:100D10004885607B217B40EA01218A488185E07B10
:100D2000A17B40EA01218748C185607C217C40EAA3
:100D3000012084490886E07CA17C40EA01218148A9
:100D40004186607D217D40EA01217E488186A07830
:100D5000314600F0E5F9A07813283DD1607921797A
:100D600040EA01207749C886E079A17940EA01216B
:100D700074480187607A217A40EA012171484187ED
:100D8000E07AA17A40EA01206E498887607B217B66
:100D900040EA01216B48C187E07BA17B40EA012149
:100DA0006848A0F84010607C217C40EA0120654939
:100DB000A1F84200E07CA17C40EA01216148A0F852
:100DC0004410607D217D40EA01215E48A0F8461074
:100DD000A078314600F0A4F9A078142842D16079B7
:100DE000217940EA01205749A1F84800E079A1792A
:100DF00040EA01215348A0F84A10607A217A40EA7B
:100E000001215048A0F84C10E07AA17A40EA012074
:100E10004C49A1F84E00607B217B40EA0121494802
:100E2000A0F85010E07BA17B40EA01214548A0F8E2
:100E30005210607C217C40EA01204249A1F8540014
:100E4000E07CA17C40EA01213E48A0F85610607D7C
:100E5000217D40EA01213B48A0F85810A078314696
:100E600000F05EF9A078152847D16079217940EA31
:100E700001203449A1F85A00E079A17940EA012122
:100E80003048A0F85C10607A217A40EA01212D48B0
:100E9000A0F85E10E07AA17A40EA01202949A1F881
:100EA0006000607B217B40EA01212648A0F86210A7
:100EB000E07BA17B40EA01212248A0F86410607C1D
:100EC000217C40EA01201F49A1F86600E07CA17C5A
:100ED00040EA01211B48A0F86810607D217D40EAAE
:100EE00001211848A0F86A10A078314600F018F9DE
:100EF00000F04AFA14A0FFF7DDF900BF23E6000076
:100F0000616363656C65726F6D657465725F616462
:100F10006A0D0A00980700206779726F5F61646A42
:100F20000D0A0000636F6D706173735F61646A0D19
:100F30000A0000006261726F6D657465725F6164C2
:100F40006A0D0A00A20700200D0A5049445F44615F
:100F500074615F5570617465206973207375636394
:100F600065737366756C21210D0A000010B5044687
:100F70006148007838B9AA2C05D101205E49087073
:100F80005E480470B6E05C480078012807D1AF2CB9
:100F900005D102205849087058484470AAE05648C4
:100FA0000078022807D1F12C05DA03205249087095
:100FB000524884709EE05048007803280CD1322CAF
:100FC0000ADA04204C4908704C48C4704C4804703C
:100FD00000204C4908708DE04748007804281AD159
:100FE00047480078002816DD45480078401E4449EF
:100FF00008704448007843490978491C414A1170F7
:10100000001D3E490C543E480078002872D105204E
:10101000394908706EE038480078052867D100200B
:101020003549087037480078001D34490C5435485C
:1010300001783248FFF772FD3348008801280BD150
:101040003248B0F90000002811DD304800884042E5
:1010500000B22E4908800AE02C48B0F900000028B0
:1010600005DA2A480088404200B22849088028480A
:10107000008801280BD12748B0F90000002811DDB5
:1010800024480088404200B2224908800AE02148F2
:10109000B0F90000002805DA1E480088404200B27E
:1010A0001C4908801C48008801280BD11B48B0F956
:1010B0000000002811DD19480088404200B217499D
:1010C00008800AE01548B0F90000002805DA134846
:1010D0000088404200B2114908800E48B0F9000073
:1010E00005F052FE002003F003FD012010BD00209A
:1010F000014908700020F9E76A000020400800203C
:101100006B000020600000206400002080000020B0
:10111000660000208200002068000020840000207B
:1011200070B504460D46AA200D4908704870EF209E
:1011300088700220C870084604714571002600209E
:1011400005E00749095C3144CEB2411CC8B206280B
:10115000F7DB03488671072100F004F870BD00003A
:101160000E08002070B505460C462146014805F0E2
:10117000F5FE70BD0E08002070B52DED0A8B82B013
:101180000546B0EE408AF0EE608AB0EE419AF0EE8D
:10119000619AB0EE42AAF0EE62AAB0EE43BAF0EE67
:1011A00063BAB0EE44CA0024AA222146641C6D48EA
:1011B00042542146641C425405F10F00C2B221463C
:1011C000641C6848425400222146641C4254BDEE0F
:1011D000C80A10EE100A00B201909DF805202146C1
:1011E000641C604842549DF804202146641C42540B
:1011F000BDEEE80A10EE100A00B201909DF805203D
:101200002146641C574842549DF804202046611C26
:10121000CCB254490A54BDEEC90A10EE100A00B20D
:1012200001909DF805202046611CCCB24D490A541E
:101230009DF804202046611CCCB24A490A54BDEEF8
:10124000E90A10EE100A00B201909DF80520204630
:10125000611CCCB243490A549DF804202046611C0D
:10126000CCB240490A54BDEECA0A10EE100A00B2D0
:1012700001909DF805202046611CCCB239490A54E2
:101280009DF804202046611CCCB236490A54BDEEBC
:10129000EA0A10EE100A00B201909DF805202046DF
:1012A000611CCCB22F490A549DF804202046611CD1
:1012B000CCB22C490A54BDEECB0A10EE100A00B293
:1012C00001909DF805202046611CCCB225490A54A6
:1012D0009DF804202046611CCCB222490A54BDEE80
:1012E000EB0A10EE100A00B201909DF8052020468E
:1012F000611CCCB21B490A549DF804202046611C95
:10130000CCB218490A54BDEECC0A10EE100A00B255
:1013100001909DF805202046611CCCB211490A5469
:101320009DF804202046611CCCB20E490A54201FAF
:10133000C8700026002005E00A49095C3144CEB29D
:10134000411CC8B2A042F7DB2046611CCCB2054963
:101350000E5421460348FFF705FF02B0BDEC0A8B8F
:1013600070BD00000E08002010B501F07FFE00F0F7
:1013700011F803F0EDF810BD10B501F077FE03F0A1
:10138000B1F801F07BFE10BD10B503F0E1F801F0FB
:1013900075FE10BD5548008855490880534880881F
:1013A000488052480089888050488089C8804F48CA
:1013B000008A404281B24E4801814C48008B81B284
:1013C0004B4841814948B0F8400049498881474825
:1013D000B0F8440081B24648C1814448B0F84800A2
:1013E00081B2434801824148B0F84C0040494882EC
:1013F0003E48B0F85000404281B23D4881823B48AF
:10140000B0F8580081B23A48C1823848B0F880003C
:10141000374908833548B0F8840081B234484183A5
:101420003248B0F8880081B2314881832F48B0F843
:101430008C002F49C8832D48B0F89000404281B2FB
:101440002B4801842948B0F8980081B2284841848B
:1014500028480088264988842748008881B2244883
:10146000C1842648008881B221480185244800882B
:101470001F4948852348008881B21D48818522483C
:10148000008881B21A48C18520480088184908861A
:101490001E48808881B2164841861C48008981B266
:1014A00013488186194880891149C8861748008ADF
:1014B00081B20F4801871548808A81B20C48418764
:1014C0001248008B0A49888711480088A1F8420019
:1014D0000F48008981B20648A0F844100C48808962
:1014E00081B20348A0F84610704700008800002031
:1014F000A20700208000002082000020840000203D
:10150000640000206600002068000020040600201F
:10151000D80500201CB50121084603F0DBFC102093
:10152000009001208DF8040000208DF806000320B3
:101530008DF8050002208DF807006946034803F086
:101540003FF81021014803F0A6F81CBD000002403E
:1015500070B504460D464FF4A06003F0B1FB04F0F3
:101560004BFA04F0DFF902F06FF9204605F010FDA8
:10157000204606F091F8204606F0E4F803F0FAFA67
:10158000FFF7C8FF01201049086002F04DFF02F08C
:10159000D7FE40F24731642004F016FC00F0FAFA5E
:1015A0004FF4FA7005F013F903F0C2F907A0FEF743
:1015B00081FE02F03CFE4FF4FA6005F008F90020CD
:1015C0000749C1F8900270BD90024042202A20478E
:1015D00059524F5F5265616479210D0A0000000085
:1015E0000000404200BFFEE72DE9F04106460F46ED
:1015F0000024164807600020144908724872082029
:10160000887200BF05E0315D10480B300155601C49
:1016100084B2082CF7DB0D490D4800F0F3FD0546B8
:10162000002401E0601C84B22946094800F07EFED7
:1016300018B940F6FF708442F4DB40F6FF70844234
:1016400002DB0120BDE8F0810020FBE778070020E5
:101650000064004010B52DED0E8B8AB00221FC48CD
:1016600000F0C4FB00287CD004AA0021F84800F058
:1016700051FD0498112806D0132873D0152872D074
:10168000162871D1D0E19DF81A00042813D19DF8D5
:101690001B008DF824009DF81C008DF825009DF896
:1016A0001D008DF826009DF81E008DF82700E948E2
:1016B000099901608FE19DF81A000828FAD1C00647
:1016C000406AE549086008460068A0F5EA403038FD
:1016D000E2490860E2480068E2490860084600689C
:1016E00047F23051081AE049086047F230504FF095
:1016F00080414862DA490860D648D0ED000AB0EE71
:10170000001A80EE810AD948D0ED000AB0EE001A26
:10171000C0EE811A30EE210AD54880ED000A90ED26
:10172000000A10EE100A06F081FE41EC1B0B9FED43
:10173000D10B53EC102B06F08FFB41EC1A0B9FEDF5
:10174000CF0B53EC102B06F049F941EC190B06F0C6
:101750005FF808EE100AB0EE480A04F0BBFDC94875
:1017600003E0B7E138E14BE1A0E1D0ED008ABE48EB
:10177000006800EE900AF8EEE00A40EE808ABC486D
:1017800090ED000A10EE100A06F050FE41EC1B0B23
:101790009FEDB80B53EC102B06F05EFB41EC1A0BDF
:1017A0009FEDB60B53EC102B06F018F941EC190B1A
:1017B00006F02EF808EE100AB0EE480A04F03CFEDF
:1017C000A648006800EE900AF8EEE00A40EEC08AF3
:1017D000AC48C0ED008AA64890ED000A10EE100A51
:1017E00006F024FE41EC1B0B9FEDA20B53EC102BDB
:1017F00006F032FB41EC1A0B9FEDA00B53EC102BC3
:1018000006F0ECF841EC190B06F002F808EE100AAD
:10181000B0EE480A04F010FE9B48D0ED008A9248D2
:10182000006800EE900AF8EEE00A40EE808A9048E8
:1018300090ED000A10EE100A06F0F8FD41EC1B0BCB
:101840009FED8C0B53EC102B06F006FB41EC190BB3
:101850009FED8A0B53EC102B06F0C0F841EC1A0BED
:1018600005F0D6FF08EE100AB0EE480A04F032FD8B
:101870007A48006800EE900AF8EEE00A40EE808AAE
:101880008148C0ED008A7A4890ED000AB1EE400A26
:10189000DFED7E0A30EE200A10EE101A084606F040
:1018A000C5FD41EC1E0B9FED730B53EC102B06F0A6
:1018B000D3FA41EC1D0B9FED710B53EC102B06F08E
:1018C0008DF841EC1C0B05F0A3FF08EE100AB0EEFA
:1018D000480A04F0FFFCDFED6E0A20EE200A10EE4D
:1018E000104A204606F0A2FD41EC1A0B654890ED27
:1018F000000A10EE100A06F099FD41EC180B9FED5E
:10190000650B53EC102B06F0A7FA41EC1B0B53ECC4
:101910001A2B06F0A1FC41EC190B05F079FF00EE43
:10192000100A5E4880ED000A514890ED000AB1EEC1
:10193000400ADFED560A30EE200A10EE101A084673
:1019400006F074FD41EC1E0B9FED4A0B53EC102B7F
:1019500006F082FA41EC1D0B9FED480B53EC102B67
:1019600006F03CF841EC1C0B05F052FF08EE100AA3
:10197000B0EE480A04F060FDDFED450A20EE200AD3
:1019800010EE104A204606F051FD41EC1A0B3E487D
:1019900090ED000A10EE100A06F048FD41EC180B1D
:1019A0009FED3C0B53EC102B06F056FA41EC1B0B51
:1019B00053EC1A2B05F05EFF41EC190B05F028FFE4
:1019C00000EE100A354880ED010A224890ED000A29
:1019D000264880ED000A6AE09DF81B008DF824007F
:1019E0009DF81C008DF825009DF81D008DF826003F
:1019F0009DF81E008DF8270029480999016056E0DE
:101A00009DF81B008DF824009DF81C008DF8250022
:101A10009DF81D008DF826009DF81E008DF827000A
:101A200020480999016042E09DF81B008DF82400D0
:101A30009DF81C008DF825009DF81D008DF82600EE
:101A40009DF81E008DF827001748099901602EE0C7
:101A50000068004024000020380000203C000020E6
:101A6000240C004034000020400000202000002012
:101A700028000020182D4454FB21094000000000DC
:101A8000008066402C00002030000020B9FCB340EC
:101A90007BA30443DEF09C762F1BA43F8C07002021
:101AA00044000020480000204C00002000BF00BF80
:101AB0000A4890ED000A0A4880ED020A01A802F0E7
:101AC000EFFD084801A90EC92C300EC002210648BE
:101AD00000F00CF80AB0BDEC0E8B10BD2400002005
:101AE0008C0700207808002000680040B1F5007FD6
:101AF0003AD00FDC202928D006DC01291CD004298B
:101B00001DD0082940D11DE0402921D0B1F5807FAA
:101B10003AD126E0B1F5004F31D006DCB1F5806F47
:101B200025D0B1F5006F2FD124E0B1F5803F12D060
:101B3000B1F5003F28D111E0154A826025E0082266
:101B4000C26022E01022C2601FE0082202611CE095
:101B50001022026119E00822426016E01022426061
:101B600013E00422426010E0042242600DE00422EF
:101B700042600AE0002282610422426005E0002205
:101B800082610422426000E000BF00BF7047000095
:101B90000101010010B500F0D9F800F08FFA00F053
:101BA00049FA00F085F810BD10B50021837A0122B2
:101BB00002FA03F13D4A126842F001023B4B1A60FF
:101BC0003A4A1C3212688A43384B1C331A60027B33
:101BD000CAB9364A0C3212688A43344B0C331A6045
:101BE0004288C38842EA0343304A4032847A42F84A
:101BF00034300288838842EA03432C4A4032847A94
:101C000002EBC4025360027B012A19D1274A0C322D
:101C100012680A43254B0C331A604288038842EA53
:101C20000343224A4032847A42F83430C28883889F
:101C300042EA03431D4A4032847A02EBC4025360F5
:101C4000C27A3AB9194A121D12688A43174B1B1DF2
:101C50001A6006E0154A121D12680A43134B1B1D39
:101C60001A60028932B9114A143212688A430F4B42
:101C700014331A600289012A06D10C4A1432126800
:101C80000A430A4B14331A60427B012A06D1074AE1
:101C90001C3212680A43054B1C331A60034A12684F
:101CA00022F00102014B1A6010BD000000660040E6
:101CB0001FB500208DF80A008DF80B0001208DF86B
:101CC0000C00214800884FF6FF7101EA4010ADF882
:101CD00000000020ADF802000846ADF80400ADF8A1
:101CE00006000020ADF8080001208DF80D006846C0
:101CF000FFF75AFF0E208DF80A0000208DF80B0028
:101D000001208DF80C000020ADF80000ADF80200B5
:101D10000E208DF80A0000208DF80B0001208DF8B0
:101D20000C000020ADF80000ADF80200ADF8040092
:101D3000ADF80600ADF8080001208DF80D006846EA
:101D4000FFF732FF1FBD00001E0000201CB501215F
:101D5000084603F0BFF80121480603F0CBF84FF422
:101D6000C050009002208DF8040000208DF806007D
:101D700003208DF8050001208DF8070069461948F9
:101D800002F01EFC09220B21164802F061FC092218
:101D90000C21144802F05CFC0121022003F09AF8A7
:101DA0000121880603F0A6F84FF44050009002206D
:101DB0008DF8040000208DF8060003208DF8050042
:101DC00001208DF807006946074802F0F9FB092257
:101DD0000C21054802F03CFC09220D21024802F0CA
:101DE00037FC1CBD000002400004024070B50446F0
:101DF0000D46002660692840002871D0B5F5807F27
:101E00005CD010DC082D35D006DC012D20D0022D51
:101E100024D0042D72D127E0102D31D0202D35D0C3
:101E2000402D6BD138E0B5F5004F60D009DCB5F539
:101E3000007F49D0B5F5806F4CD0B5F5006F5DD10E
:101E40004FE0B5F5803F2DD0B5F5003F56D12FE0DE
:101E5000A0682D4901F0F6F8064651E0E06803213C
:101E600001F0F0F806464BE0E068082101F0EAF8DE
:101E7000064645E0E068102101F0E4F806463FE040
:101E80002069032101F0DEF8064639E020690821C7
:101E900001F0D8F8064633E02069102101F0D2F8AD
:101EA00006462DE06068082101F0CCF8064627E0E0
:101EB0006068102101F0C6F8064621E0A069012102
:101EC00001F0C0F806461BE0A069022101F0BAF853
:101ED000064615E0A069042101F0B4F806460FE0BB
:101EE0000FE0A069702101F0ADF8064608E06068D7
:101EF000042101F0A7F8064602E0FFE7002600BF34
:101F000000E00026304670BD010101001AB14369AE
:101F10000B43436102E043698B434361704730B533
:101F2000024600200023146824F0020414601468A0
:101F300044F00104146000E05B1C546804F00104E8
:101F40001CB94FF6FF74A342F6D1546804F00104A3
:101F50000CB900206CE08C79012C04D1146844F099
:101F60008004146003E0146824F080041460CC79C9
:101F7000012C04D1146844F04004146003E0146898
:101F800024F0400414600C7A012C04D1146844F04D
:101F90002004146003E0146824F0200414604C7AD8
:101FA000012C04D1146844F01004146003E0146898
:101FB00024F0100414608C7A012C04D1146844F0CD
:101FC0000804146003E0146824F008041460CC7A58
:101FD000012C04D1146844F00404146003E0146874
:101FE00024F0040414608C78A407CD7844EA0564D6
:101FF0000D7944EA05444D7944EA05540D886D1E77
:102000002C43D461146824F001041460002300E020
:102010005B1C546804F001041CB14FF6FF74A3422A
:10202000F6D1546804F001040CB1002000E0012056
:1020300030BD00000EB500208DF806008DF80700B9
:102040008DF8080001208DF8090000208DF80A00A5
:102050008DF80B008DF802008DF8030008208DF834
:10206000040003208DF80500ADF800006946114812
:10207000FFF755FF00208DF806008DF807008DF85A
:10208000080001208DF8090000208DF80A008DF865
:102090000B008DF802008DF8030008208DF8040075
:1020A00003208DF80500ADF8000069460248FFF7EF
:1020B00036FF0EBD006400400068004008B50122F4
:1020C00002211248FFF722FF14208DF800000120A2
:1020D0008DF8010000208DF8020001208DF803002A
:1020E000684602F0B1FD012202210948FFF70EFF08
:1020F00040208DF8000001208DF801008DF80200CD
:102100008DF80300684602F09FFD08BD00640040A2
:102110000068004010B500F5D87303EB01131B688D
:1021200003F004031372137A53B900F5D87303EB69
:1021300001131B6840F2FF7404EA5353136009E073
:1021400000F5D87303EB01131B686FF0604404EAD9
:10215000D303536000F5D87303EB01131B6803F03E
:102160000203537200F5D87303EB01135B6803F0AD
:102170000F03937200F5D87303EB01135B681B0A1E
:10218000D37400F5D87303EB01139B68D37200F589
:10219000D87303EB01139B681C0A147300F5D87302
:1021A00003EB01139B681C0C547300F5D87303EB0D
:1021B00001139B681B0E937300F5D87303EB011397
:1021C000DB68D37300F5D87303EB0113DB681C0ADB
:1021D000147400F5D87303EB0113DB681C0C547402
:1021E00000F5D87303EB0113DB681B0E937421B960
:1021F000C36843F02003C36003E0036943F0200396
:10220000036110BD10B502460020936803F080639F
:10221000B3F1806F00D110E0936803F00063B3F175
:10222000006F01D1012008E0936803F08053B3F1FF
:10223000805F01D1022000E00420042874D002F560
:10224000C07303EB00131B6803F0010402F5C073B5
:1022500003EB00131C600B7A7BB94B7A0C8843EAC2
:10226000445302F5C07404EB00142468234302F5C0
:10227000C07404EB0014236010E00B7A4C6843EA4E
:10228000C4034C7A234302F5C07404EB00142468A1
:10229000234302F5C07404EB001423608B7A03F02F
:1022A0000F038B7202F5C07303EB00135B6823F01E
:1022B0000F0402F5C07303EB00135C6002F5C073FA
:1022C00003EB00135B688C7A234302F5C07404EBC4
:1022D000001463608B7B1C064B7B44EA03440B7B3E
:1022E00044EA0323CC7A234302F5C07404EB0014C0
:1022F000A3608B7C1C064B7C44EA03440B7C44EAC1
:102300000323CC7B234302F5C07404EB0014E36089
:1023100002F5C07303EB00131B6843F0010402F5E0
:10232000C07303EB00131C6010BD000010B5024623
:10233000002321B1012907D002290FD109E09068BB
:102340001D4C00EA04030BE090681C4C00EA0403F7
:1023500006E090681A4C00EA040301E0002300BF85
:1023600000BF184C181BA34216D007DC83B16FF0D6
:102370008060184470B1022818D111E0B0F5007FD8
:1023800010D0114C204448B1B0F5003F0ED10BE005
:1023900002230DE000230BE0002309E0002307E007
:1023A000012305E0012303E0012301E0002300BF36
:1023B00000BFD8B210BD00000300000400030008F5
:1023C00000000310000100080001FFF701B594B000
:1023D000149890ED070AF8EEC00AB2EE041A80EEE7
:1023E000810A8DED130A149890ED070AF8EEC00AE1
:1023F000B3EE041A80EE810A8DED120A149890ED66
:10240000070AB8EEC01ADFEDFE0A81EE200A8DED54
:10241000110A149890ED070AF8EEC00A9FEDF91A18
:1024200080EE810A8DED100A149890ED070AF8EEFF
:10243000C00A9FEDF51A80EE810A8DED0F0A1498FF
:1024400090ED070AF8EEC00A9FEDF01A80EE810ABF
:102450008DED0E0A149890ED070AF8EEC00A9FED74
:10246000EC1A80EE810A8DED0D0A149890ED070AA2
:10247000F8EEC00A9FEDE71A80EE810A8DED0C0A96
:10248000149890ED070AF8EEC00A9FEDE31A80EE6B
:10249000810A8DED0B0A149890ED070AF8EEC00A38
:1024A0009FEDDE1A80EE810A8DED0A0A149890EDF8
:1024B000070AB8EEC01ADFEDDA0A81EE200A8DEDC8
:1024C000090A149890ED070AB8EEC01ADFEDD50A94
:1024D00081EE200A8DED080AD348007801287DD1CD
:1024E000D2480078012823D19DED0D0ADFEDD00AF6
:1024F0009FEDD01A41EE400ABDEEE00A10EE100A40
:1025000000B2CD4908800020CC4908804FF47A7091
:1025100064224310CDE9052004930790CDE9012002
:1025200000930390034602466421401004F0E4FB4C
:10253000BE480078022822D14FF65030BE490880AC
:102540009DED0A0ADFEDBE0A20EE200ABDEEC00AAC
:1025500010EE100A00B2B94908804FF47A70642274
:102560004310CDE9052004930790CDE901200093A5
:102570000390034602466421401004F0BDFBAB48C3
:102580000078032824D19DED0D0ADFEDAE0A9FED02
:10259000A91A41EE000ABDEEE00A10EE100A00B2E0
:1025A000A549088040F60200A44908804FF47A70DB
:1025B00064224310CDE9052004930790CDE9012062
:1025C00000930390034602466421401004F094FBFC
:1025D00096480078042825D1002000E0BDE1964906
:1025E00008809DED0B0ADFED960A9FED971A41EEEC
:1025F000000ABDEEE00A10EE100A00B28F49088012
:102600004FF47A7064224310CDE9052004930790BB
:10261000CDE9012000930390034602466421401057
:1026200004F06AFB81480078052824D19DED0D0A4D
:10263000DFED7F0A9FED7F1A41EE400ABDEEE00A12
:1026400010EE100A00B27C49088040F6DE507B494B
:1026500008804FF47A7064224310CDE9052004937A
:102660000790CDE9012000930390034602466421C0
:10267000401004F041FB6D480078062824D14FF645
:1026800050306D4908809DED0D0ADFED700A9FED19
:10269000701A41EE000ABDEEE00A10EE100A00B218
:1026A000664908804FF47A7064224310CDE9052012
:1026B00004930790CDE9012000930390034602465E
:1026C0006421401004F018FB5848007807282FD1E7
:1026D0009DED0D0ADFED5B0A9FED5E1A41EE000AEB
:1026E000BDEEE00A10EE100A00B2534908809DEDDD
:1026F0000D0ADFED590A9FED591A41EE000ABDEEB1
:10270000E00A10EE100A00B24C4908804FF47A70CB
:1027100064224310CDE9052004930790CDE9012000
:1027200000930390034602466421401004F0E4FA4B
:102730003E480078082826D14FF6C6503E4908800A
:102740009DED090ADFED460A9FED461A41EE000AAB
:10275000BDEEE00A10EE100A00B2384908804FF4CE
:10276000966064224FF4FA73CDE905200493079034
:102770005800CDE9012000930390034602466421EE
:10278000401004F0B9FA29480078092826D14FF6FC
:10279000C650294908809DED120ADFED330A9FEDEE
:1027A0001F1A41EE000ABDEEE00A10EE100A00B258
:1027B000224908804FF4487064224FF4FA73CDE93F
:1027C000052004930790CDE9012000930390034670
:1027D000024664214FF4FA7004F08EFA1348007830
:1027E0000A2867D19DED080ADFED200A9FED201A27
:1027F00041EE400ABDEEE00A10EE100A00B239E0E8
:102800000000204200004842000070420000A04248
:102810000000C8420000F042000016430000484398
:1028200000007A4300009643100000201C0700209F
:10283000000000000000964480000020820000207C
:1028400000200045000096C40080BB4400E05D45C8
:1028500000007A4400801D4400308E4500803B44D7
:1028600000A0A54500C00F450080ED4500800EC4C6
:1028700000206945FE49088041F67860FD490880DE
:102880006FF05900FC4908804FF4FA706422CDE9DA
:1028900004020690079010014FF4FA73CDE901206D
:1028A0000093039040F2DC531A46C8214FF47A702B
:1028B00004F022FAF14800780B282AD19DED0A0A8B
:1028C000DFEDEF0A1FED2B1A41EE400ABDEEE00AE4
:1028D00010EE100A00B2E649088041F67860E5493A
:1028E00008800020E44908804FF4C87064224FF447
:1028F000FA73CDE9052004930790CDE901200093F8
:10290000039040F214531A46C8214FF47A7004F031
:10291000F3F9DA4800780C281FD14EF66C60D449E0
:10292000088041F67860D34908800020D2490880A9
:102930004FF4C87064224FF4FA73CDE90520049374
:102940000790CDE901200093039040F214531A46FA
:10295000C8214FF47A7004F0CFF9CA4800780328F0
:102960001FD1C648007803281BD14EF66C60C049C1
:1029700008804FF4FA50BF4908800020BE49088003
:102980004FF4FA706422CDE9040206900790CDE975
:102990000002029003460246C8210390400004F062
:1029A000ABF9B8480078052835D1B4480078032839
:1029B00031D19DED0A0ADFEDB40A9FEDB41A41EE64
:1029C000000ABDEEE00A10EE100A00B2A849088025
:1029D0009DED0A0ADFEDAE0A1FED701A41EE400AC6
:1029E000BDEEE00A10EE100A00B2A24908800020F5
:1029F000A14908804FF4FA706422CDE904020690E0
:102A00000790CDE90002029003460246C8210390D8
:102A1000400004F071F99B48007807287ED1974860
:102A2000007801282AD14FF2B230914908809DEDFB
:102A3000080ADFED980A9FED981A41EE400ABDEEB4
:102A4000E00A10EE100A00B28A49088000208A4984
:102A500008804FF4C86064224FF4FA73CDE9052072
:102A60000493CDE9003202930393079040F214538C
:102A70001A46C8214FF47A7004F03EF97F48007876
:102A800002282AD14FF2B230794908809DED120A0E
:102A9000DFED820A1FEDA21A41EE400ABDEEE00A08
:102AA00010EE100A00B273490880002072490880B5
:102AB0004FF4967064224FF4FA73CDE90520049325
:102AC0000790CDE901200093039040F214531A4679
:102AD000C8214FF47A7004F00FF968480078032891
:102AE0002CD14FF2B230624908804FF47A606149CC
:102AF00008809DED120A5FEDB20A1FEDBF1A41EE8C
:102B0000000ABDEEE00A10EE100A00B25A49088031
:102B10004FF4967064224FF4FA7300E00FE0CDE9B1
:102B2000052004930790CDE9012000930390D30082
:102B30001A46C8214FF47A7004F0DEF800BF5148FD
:102B4000007809285CD14D480078012828D14FF23F
:102B5000B230474908809DED080ADFED510A9FED2C
:102B6000511A41EE000ABDEEE00A10EE100A00B262
:102B7000404908800020404908804FF4C860642222
:102B80004FF4FA73CDE90520049307905800CDE97E
:102B9000012000930390D3001A46C82104F0ACF83A
:102BA0003648007802282AD14FF2B23030490880E6
:102BB0009DED120A5FEDD40A1FEDE81A41EE000AFE
:102BC000BDEEE00A10EE100A00B22A49088000208B
:102BD000294908804FF4967064224FF4FA73CDE9C6
:102BE000052004930790CDE901200093039040F263
:102BF00014531A46C8214FF47A7004F07DF800BFD0
:102C0000204800780B287DD11C48007803282AD161
:102C10004FF2B230164908809DED080ADFED1D0A1B
:102C20009FED201A41EE400ABDEEE00A10EE100AB8
:102C300000B21049088000200F4908804FF4C86096
:102C400064224FF4FA73CDE905200493CDE90032F4
:102C500002930393079040F214531A46C8214FF48D
:102C60007A7004F049F805480078042847D11BE041
:102C70008000002082000020840000201C0700202B
:102C8000006086C51000002000A08CC50000AF4485
:102C90000000FA4500C0F34500406745002080452C
:102CA00000007A45000061454FF2B230DB490880F0
:102CB0009DED120ADFEDDA0A9FEDDA1A41EE400AC5
:102CC000BDEEE00A10EE100A00B2D74908800020DD
:102CD000D64908804FF4967064224FF4FA73CDE918
:102CE000052004930790CDE901200093039040F262
:102CF00014531A46C8214FF47A7003F0FDFFCC48F4
:102D0000007800E02DE005282AD14FF2B230C34907
:102D100008804FF47A60C44908809DED120ADFED07
:102D2000C50A9FEDC51A41EE000ABDEEE00A10EE9D
:102D3000100A00B2BD4908804FF4967064224FF427
:102D4000FA73CDE9052004930790CDE901200093A3
:102D50000390D3001A46C8214FF47A7003F0CCFFD9
:102D600000BFB64800780D285FD1B148007801282F
:102D70002BD14FF2D850A94908809DED080A5FED8C
:102D8000380A1FED381A41EE000ABDEEE00A10EED7
:102D9000100A00B2A44908800020A44908804FF41A
:102DA000C86064224FF4FA73CDE9052004930790BC
:102DB0004FF41670CDE9012000930390D3001A461A
:102DC000C8214FF47A7003F097FF994800780228E1
:102DD0002AD14FF2D850914908809DED120ADFEDBB
:102DE000980A9FED901A41EE000ABDEEE00A10EE3F
:102DF000100A00B28C49088000208C4908804FF4EA
:102E0000967064224FF4FA73CDE90520049307907D
:102E1000CDE901200093039040F214531A46C821D3
:102E20004FF47A7003F068FF00BF844800780F28E1
:102E30007ED17F48007803282AD14FF2B2307749FB
:102E400008809DED080A5FED6D0A1FED6A1A41EEDC
:102E5000400ABDEEE00A10EE100A00B27249088086
:102E60000020724908804FF4C86064224FF4FA735E
:102E7000CDE905200493CDE9003202930393079036
:102E800040F214531A46C8214FF47A7003F034FF0D
:102E90006748007804282AD14FF2B2305F49088091
:102EA0009DED120ADFED5E0A9FED5E1A41EE400ACB
:102EB000BDEEE00A10EE100A00B25B490880002067
:102EC0005A4908804FF4967064224FF4FA73CDE9A2
:102ED000052004930790CDE901200093039040F270
:102EE00014531A46C8214FF47A7003F005FF504876
:102EF000007805282CD14FF2B230484908804FF4B1
:102F00007A60494908809DED120ADFED4A0A9FED7B
:102F10004A1A41EE000ABDEEE00A10EE100A00B2B5
:102F2000424908804FF4967064224FF4FA7300E02F
:102F30000FE0CDE9052004930790CDE9012000932F
:102F40000390D3001A46C8214FF47A7003F0D4FEE0
:102F500000BF3A480078142857D135480078012836
:102F60001AD14FF2B2302D49088041F678602E49CF
:102F7000088000202D4908804FF47A7064224310A5
:102F8000CDE9052004930790CDE901201A46C82118
:102F90000093039003F0B0FE25480078022819D171
:102FA00000201E49088041F678601F4908800020F3
:102FB0001E4908804FF47A7064224310CDE9052041
:102FC00004930790CDE901201A46C821009303908D
:102FD00003F092FE16480078032816D100200F490E
:102FE000088011490880114908804FF47A706422E2
:102FF0004310CDE9052004930790CDE901201A463E
:10300000C8210093039003F077FE044800884042F3
:1030100000B20249088015B000BD00008000002009
:1030200000408345000048438200002084000020C7
:103030001C070020000000000000204210000020BB
:103040000080ED450246002002EA01030BB1012099
:1030500000E000207047000003480021016041604B
:103060008160C160704700005809002010B56C21D4
:103070000148FDF72BFA10BDA207002000B589B06A
:10308000FE480088039004F098FE9FEDFD0B53EC82
:10309000102BCDE904019DED040B51EC100B04F055
:1030A000DBFECDE906019DED060B51EC100B04F0A3
:1030B000EDFDF5490860F1484088039004F07DFE7D
:1030C0009FEDEF0B53EC102BCDE904019DED040BAC
:1030D00051EC100B04F0C0FECDE906019DED060B8E
:1030E00051EC100B04F0D2FDE7494860E3488088BA
:1030F000039004F062FE9FEDE20B53EC102BCDE940
:1031000004019DED040B51EC100B04F0A5FECDE97C
:1031100006019DED060B51EC100B04F0B7FDDA49EA
:103120008860D648C088039004F047FE9FEDD40B1A
:1031300053EC102BCDE904019DED040B51EC100B69
:1031400004F08AFECDE906019DED060B51EC100B53
:1031500004F09CFDCC49C860C8480089019004F087
:103160002CFE9FEDC70B53EC102BCDE902019DED1A
:10317000020B51EC100B04F06FFECDE904019DED44
:10318000040B51EC100B04F037FBCDE906019DED6B
:10319000060B51EC100B04F079FDBB490861B748F0
:1031A0004089039004F009FE9FEDB50B53EC102B02
:1031B000CDE904019DED040B51EC100B04F04CFE25
:1031C000CDE906019DED060B51EC100B04F05EFD00
:1031D000AD498861A9488089039004F0EEFD9FED18
:1031E000A80B53EC102BCDE904019DED040B51EC21
:1031F000100B04F031FECDE906019DED060B51ECFC
:10320000100B04F043FDA04908649C48C08903905A
:1032100004F0D3FD9FED9A0B53EC102BCDE9040184
:103220009DED040B51EC100B04F016FECDE90601E8
:103230009DED060B51EC100B04F028FD92494864FB
:103240008E48008A039004F0B8FD9FED8D0B53EC7F
:10325000102BCDE904019DED040B51EC100B04F093
:10326000FBFDCDE906019DED060B51EC100B04F0C2
:103270000DFD854988648148408A039004F09DFDD6
:103280009FED7F0B53EC102BCDE904019DED040B5A
:1032900051EC100B04F0E0FDCDE906019DED060BAD
:1032A00051EC100B04F0F2FC7749C8647348808A33
:1032B000019004F082FD9FED720B53EC102BCDE9D1
:1032C00002019DED020B51EC100B04F0C5FDCDE9A0
:1032D00004019DED040B51EC100B04F08DFACDE9C7
:1032E00006019DED060B51EC100B04F0CFFC664976
:1032F00008656248C08A039004F05FFD9FED600B93
:1033000053EC102BCDE904019DED040B51EC100B97
:1033100004F0A2FDCDE906019DED060B51EC100B6A
:1033200004F0B4FC584988655448008B039004F0BD
:1033300044FD9FED530B53EC102BCDE904019DEDA3
:10334000040B51EC100B04F087FDCDE906019DED57
:10335000060B51EC100B04F099FC4B49C1F88000AE
:103360004648408B039004F028FD9FED450B53EC3D
:10337000102BCDE904019DED040B51EC100B04F072
:103380006BFDCDE906019DED060B51EC100B04F031
:103390007DFC3D49C1F884003848808B039004F0DF
:1033A0000CFD9FED370B53EC102BCDE904019DED87
:1033B000040B51EC100B04F04FFDCDE906019DED1F
:1033C000060B51EC100B04F061FC2F49C1F888008A
:1033D0002A48C08B039004F0F0FC9FED290B53ECBE
:1033E000102BCDE904019DED040B51EC100B04F002
:1033F00033FDCDE906019DED060B51EC100B04F0F9
:1034000045FC2149C1F88C001C48008C019004F057
:10341000D4FC9FED1B0B53EC102BCDE902019DED6D
:10342000020B51EC100B04F017FDCDE904019DEDEA
:10343000040B51EC100B04F0DFF9CDE906019DED12
:10344000060B51EC100B04F021FC0F49C1F8900061
:103450000A48408C039004F0B0FC9FED090B53EC3C
:10346000102BCDE904019DED040B51EC100B04F081
:10347000F3FCCDE906019DED060B07E0A207002055
:10348000000000000000F03F8800002051EC100B0D
:1034900004F0FCFBE249C1F89800E248808C0390FC
:1034A00004F08BFC1FED0A0B53EC102BCDE904014B
:1034B0009DED040B51EC100B04F0CEFCCDE90601A0
:1034C0009DED060B51EC100B04F0E0FB00B2D64969
:1034D0000880D448C08C039004F06FFC1FED180BDB
:1034E00053EC102BCDE904019DED040B51EC100BB6
:1034F00004F0B2FCCDE906019DED060B51EC100B7A
:1035000004F0C4FB00B2C9490880C648008D03908E
:1035100004F053FC1FED260B53EC102BCDE90401F6
:103520009DED040B51EC100B04F096FCCDE9060167
:103530009DED060B51EC100B04F0A8FB00B2BC494A
:103540000880B848408D039004F037FC1FED340B21
:1035500053EC102BCDE904019DED040B51EC100B45
:1035600004F07AFCCDE906019DED060B51EC100B41
:1035700004F08CFB00B2AF490880AA48808D03900C
:1035800004F01BFC1FED420B53EC102BCDE90401A2
:103590009DED040B51EC100B04F05EFCCDE906012F
:1035A0009DED060B51EC100B04F070FB00B2A2492C
:1035B00008809C48C08D039004F0FFFB1FED500B6A
:1035C00053EC102BCDE904019DED040B51EC100BD5
:1035D00004F042FCCDE906019DED060B51EC100B09
:1035E00004F054FB00B2954908808E48008E039089
:1035F00004F0E3FB1FED5E0B53EC102BCDE904014F
:103600009DED040B51EC100B04F026FCCDE90601F6
:103610009DED060B51EC100B04F038FB8849086057
:103620008048408E039004F0C8FB1FED6B0B53ECF9
:10363000102BCDE904019DED040B51EC100B04F0AF
:103640000BFCCDE906019DED060B51EC100B04F0CF
:103650001DFB7B4948607348808E039004F0ADFBEE
:103660001FED790B53EC102BCDE904019DED040BFC
:1036700051EC100B04F0F0FBCDE906019DED060BBB
:1036800051EC100B04F002FB6D4988606548C08E58
:10369000039004F092FB1FED860B53EC102BCDE949
:1036A00004019DED040B51EC100B04F0D5FBCDE9AA
:1036B00006019DED060B51EC100B04F0E7FA604992
:1036C000C8605848008F039004F077FB1FED940BFF
:1036D00053EC102BCDE904019DED040B51EC100BC4
:1036E00004F0BAFBCDE906019DED060B51EC100B81
:1036F00004F0CCFA524908614A48408F039004F024
:103700005CFB1FEDA10B53EC102BCDE904019DEDEB
:10371000040B51EC100B04F09FFBCDE906019DED6D
:10372000060B51EC100B04F0B1FA454948613D48D5
:10373000808F019004F041FB1FEDAF0B53EC102B79
:10374000CDE902019DED020B51EC100B04F084FB5E
:10375000CDE904019DED040B51EC100B04F04CF885
:10376000CDE906019DED060B51EC100B04F08EFA2D
:10377000334988612B48B0F84200039004F01DFBE8
:103780001FEDC10B53EC102BCDE904019DED040B93
:1037900051EC100B04F060FBCDE906019DED060B2A
:1037A00051EC100B04F072FA264908601D48B0F87D
:1037B0004400039004F001FB1FEDCF0B53EC102BE2
:1037C000CDE904019DED040B51EC100B04F044FB1A
:1037D000CDE906019DED060B51EC100B04F056FAF5
:1037E000184988600F48B0F84600039004F0E5FAE5
:1037F0001FEDDD0B53EC102BCDE904019DED040B07
:1038000051EC100B04F028FBCDE906019DED060BF1
:1038100051EC100B04F03AFA0A49C86009B000BD37
:1038200088000020A20700208000002082000020E5
:103830008400002064000020660000206800002052
:1038400004060020D805002010B5002404E020461E
:1038500001F04EF9601CC4B2052CF8DB10BD7047B6
:103860007047000010B5FE48007801287ED1FD4861
:103870000078012812D1FC480068401CFA49086011
:103880000846006802F0FFFCF7480068642805D18C
:103890000220F44908700020F3490860F1480078DC
:1038A000022812D1F0480068401CEF490860084621
:1038B000006802F0E8FCEC480068C82805D1032045
:1038C000E84908700020E8490860E64800780328C5
:1038D00012D1E5480068401CE349086008460068CA
:1038E00002F0D1FCE0480068642805D10420DD49DD
:1038F00008700020DC490860DA480078042812D1FA
:10390000D9480068401CD84908600846006802F0A1
:10391000BAFCD5480068962805D10520D149087021
:103920000020D1490860CF480078052812D1CE4840
:103930000068401CCC4908600846006802F0A3FCFF
:10394000C9480068642805D10620C64908700020CF
:10395000C5490860C3480078062814D1C2480068E9
:10396000401CC14908600846006800E099E002F088
:103970008AFCBD480068642805D10720B949087051
:103980000020B9490860B7480078072812D1B64826
:103990000068401CB44908600846006802F073FCE7
:1039A000B1480068642805D10820AE49087000209D
:1039B000AD490860AB480078082812D1AA480068D1
:1039C000401CA94908600846006802F05CFCA64853
:1039D0000068FA2805D10920A24908700020A249F0
:1039E0000860A0480078092812D19F480068401C50
:1039F0009D4908600846006802F045FC9A48006846
:103A0000142805D10A2097490870002096490860BB
:103A1000944800780A2813D193480068401C9249C2
:103A200008600846006802F02EFC8F480068B0F578
:103A3000967F05D10B208B49087000208A490860C9
:103A4000884800780B2812D187480068401C8649B6
:103A500008600846006802F016FC83480068C82821
:103A600005D10C207F49087000207F4908607D48FF
:103A700000780C2815D17C480068401C7A49086001
:103A80000846006802F0FFFB77480068642808D108
:103A900001207449087000207349086002207049B1
:103AA00008706F480078032848D16E4800780128D4
:103AB00012D16D480068401C6B49086008460068D8
:103AC00002F0E1FB684800680A2805D10220654938
:103AD000087000206449086062480078022812D10A
:103AE00061480068401C604908600846006802F0B0
:103AF000CAFB5D4800680A2805D1032059490870AF
:103B000000205949086057480078032816D15648C4
:103B10000068401C544908600846006802F0B3FB86
:103B200051480068B0F5967F08D101204D490870D2
:103B300000204D4908600420494908704848007831
:103B4000052847D147480078012812D14648006827
:103B5000401C454908600846006802F094FB424852
:103B600000680A2805D102203E49087000203E491D
:103B700008603C480078022812D13B480068401C8D
:103B8000394908600846006802F07DFB3648006845
:103B90000A2805D103203349087000203249086003
:103BA00030480078032815D12F480068401C2E4962
:103BB00008600846006802F066FB2B480068C828C9
:103BC00008D10120274908700020274908600620F5
:103BD000234908702248007807287DD121480078C1
:103BE000012813D120480068401C1F49086008467E
:103BF000006802F048FB1C480068B0F5967F05D1CC
:103C000002201849087000201749086015480078FC
:103C1000022812D114480068401C13490860084665
:103C2000006802F030FB10480068142805D103201A
:103C30000C49087000200C4908600A4800780328E5
:103C400019D109480068401C074908600846006807
:103C500002F019FB0448006814280CD1042005E088
:103C6000100000201C07002020070020FE490870DB
:103C70000020FE490860FC480078042812D1FB4867
:103C80000068401CF94908600846006802F0FBFA29
:103C9000F64800680A2805D10520F349087000207D
:103CA000F2490860F0480078052812D1EF48006812
:103CB000401CEE4908600846006802F0E4FAEB4850
:103CC00000680A2805D10620E74908700020E74966
:103CD0000860E548007800E017E0062815D1E348C1
:103CE0000068401CE14908600846006802F0CBFA11
:103CF000DE4800680A2808D10120DB49087000204E
:103D0000DA4908600820DA490870D948007809289B
:103D100048D1D5480078012813D1D4480068401C08
:103D2000D24908600846006802F0ADFACF48006842
:103D3000B0F5967F05D10220CB4908700020CB4911
:103D40000860C9480078022812D1C8480068401CA1
:103D5000C64908600846006802F095FAC348006842
:103D6000142805D10320C04908700020BF4908600D
:103D7000BD480078032815D1BC480068401CBB49E9
:103D800008600846006802F07EFAB84800680A2811
:103D900008D10120B44908700020B44908600A2005
:103DA000B3490870B24800780B287DD1AE4800783E
:103DB000012812D1AD480068401CAC490860084693
:103DC000006802F060FAA94800680A2805D10220BC
:103DD000A54908700020A5490860A348007802287A
:103DE00012D1A2480068401CA0490860084600683B
:103DF00002F049FA9D4800680A2805D103209A4933
:103E0000087000209949086097480078032813D16A
:103E100096480068401C954908600846006802F012
:103E200032FA92480068B0F5967F05D104208E4999
:103E3000087000208D4908608B480078042812D152
:103E40008A480068401C894908600846006802F0FA
:103E50001AFA86480068142805D10520824908709E
:103E600000208249086080480078052812D17F48E8
:103E70000068401C7D4908600846006802F003FAAB
:103E80007A480068142805D1062077490870002078
:103E90007649086074480078062814D17348006891
:103EA000401C7249086000E03EE00846006802F0ED
:103EB000EAF96E4800680A2805D107206A490870A7
:103EC00000206A49086068480078072812D16748CE
:103ED0000068401C654908600846006802F0D3F994
:103EE000624800680A2805D108205F490870002050
:103EF0005E4908605C480078082815D15B48006876
:103F0000401C5A4908600846006802F0BCF957484E
:103F100000680A2808D1012053490870002053493D
:103F200008600C2052490870514800780D2848D18B
:103F30004D480078012813D14C480068401C4B497B
:103F400008600846006802F09EF948480068B0F52D
:103F5000967F05D10220444908700020434908603B
:103F600041480078022812D140480068401C3F496F
:103F700008600846006802F086F93C48006814288A
:103F800005D10320384908700020384908603648B8
:103F90000078032815D135480068401C3349086073
:103FA0000846006802F06FF9304800680A2808D116
:103FB00001202D49087000202C4908600E202C4952
:103FC00008702B4800780F287ED1274800780128F8
:103FD00012D126480068401C244908600846006841
:103FE00002F051F9214800680A2805D102201E4933
:103FF000087000201D4908601B480078022812D173
:104000001A480068401C194908600846006802F018
:104010003AF9164800680A2805D1032012490870A9
:1040200000201249086010480078032813D10F4877
:104030000068401C0D4908600846006802F023F93A
:104040000A480068B0F5967F05D10420064908703B
:1040500000200649086004480078042819D1034864
:104060000068401C014905E01C07002020070020D3
:104070001000002008600846006802F004F961485A
:104080000068142805D105205F49087000205D49AB
:1040900008605D480078052812D15A480068401C25
:1040A000584908600846006802F0EDF85548006875
:1040B000142805D106205449087000205149086091
:1040C00051480078062800E044E012D14D480068CD
:1040D000401C4C4908600846006802F0D4F8494882
:1040E00000680A2805D10720474908700020454983
:1040F000086045480078072812D142480068401CF3
:10410000404908600846006802F0BDF83D48006874
:104110000A2805D108203C49087000203949086068
:1041200039480078082815D136480068401C3549C0
:1041300008600846006802F0A6F8324800680A28BD
:1041400008D101203049087000202E490860102055
:104150002E4908702D48007814284AD12A48007842
:10416000012813D127480068401C264908600846EA
:10417000006802F088F823480068B0F5967F05D102
:1041800002202149087000201E4908601E4800785E
:10419000022813D11B480068401C1A4908600846D1
:1041A000006802F070F817480068B0F5967F05D1F6
:1041B0000320154908700020124908601248007851
:1041C000032816D10F480068401C0E4908600846B5
:1041D000006802F058F80B480068B0F5967F08D1E7
:1041E0000120094908700020064908601520074988
:1041F000087000F06FFD00F00DFE00F02BFE01F0E6
:1042000093F810BD200700201C070020100000209C
:104210000448006808B9012000E000200149086056
:10422000704700008002414270477047704710B5E8
:10423000F12000F016F8C82002F0D6FAF22000F0C3
:1042400010F8C82002F0D0FAF32000F00AF8C820D5
:1042500002F0CAFAF42000F004F8C82002F0C4FA10
:1042600010BD30B585B0044600252546E1208DF807
:104270000B0055218DF80C108DF80D108DF80E10D7
:104280008DF80F108DF810108DF811101E218DF87B
:10429000121029460DF10B00FDF7A6F905B030BD4F
:1042A00070B586B005460C4600262E46E5208DF8F2
:1042B0000F0055218DF812108DF813108DF8141081
:1042C0008DF815105E218DF81610002C08DA644266
:1042D00044F40044210A8DF810108DF8114004E0D8
:1042E000210A8DF810108DF8114031460DF10F00A4
:1042F000FDF77AF906B070BD2DE9F04104460F468E
:1043000015461E462146F120FFF7CAFFC82002F0DD
:104310006BFA3946F220FFF7C3FFC82002F064FAB7
:104320002946F320FFF7BCFFC82002F05DFA3146B2
:10433000F420FFF7B5FFC82002F056FABDE8F0817F
:1043400000B589B00121084600F0D4FD01210846DE
:1043500000F0C0FD0121022000F0BCFD012205217A
:104360002F4800F075F9012203212E4800F070F962
:104370002020079002208DF8200003208DF82100D6
:1043800001208DF8220007A9254800F019F908201E
:10439000079002208DF8200003208DF821000020D6
:1043A0008DF8230007A91F4800F00AF904A801F0BE
:1043B00001FD0020ADF810004FF6FF7005900020C1
:1043C000ADF81800ADF8120004A94FF0804001F0DC
:1043D000AFFC00231A4603214FF0804001F0FEFBA2
:1043E00001A801F064FC0A20ADF80C0001A9400707
:1043F00001F026FC0121880701F0DEFB01221146B5
:10440000900701F05DFC47F230514FF0804001F021
:1044100060FC0121880701F0D5FB09B000BD000058
:10442000000002400004024000B589B001210820CC
:1044300000F060FD0121084600F04CFD0222012140
:10444000264800F005F902220021244800F000F976
:104450000320079002208DF8200003208DF8210012
:1044600001208DF8220007A91C4800F0A9F804A833
:1044700001F0A0FC0020ADF810004FF6FF70059091
:104480000020ADF81800ADF8120004A9144801F09E
:104490004FFC00231A460321114801F09FFB01A89D
:1044A00001F005FC0A20ADF80C0001A90C4801F050
:1044B000C7FB01210A4801F07FFB01221146084891
:1044C00001F0FEFB47F23051054801F002FC0121EA
:1044D000034801F077FB09B000BD00000000024076
:1044E000000C004010B5B6B0D8216846FCF710F8B3
:1044F00036226946144800F065FE002420E004EBF3
:1045000044003DF8200004EB4401104A22F8110059
:1045100004EB4400694601EB8000808804EB440111
:1045200002EB4101488004EB4400694601EB800046
:10453000008904EB440102EB41018880601CC4B295
:10454000122CDCDB36B010BD00000C08A2070020E6
:1045500010B5B6B0D8216846FBF7DAFF002421E099
:1045600004EB4400144931F8100004EB44014DF809
:10457000210004EB4400104901EB4000408804EBAB
:1045800044016A4602EB8101486004EB44000A4999
:1045900001EB4000808804EB440102EB810188605C
:1045A000601CC4B2122CDBDB36226946034800F0E3
:1045B0003DFE36B010BD0000A207002000000C0830
:1045C000F0B50A4600210023002400BF3DE001258C
:1045D00005FA01F3156805EA03049C4234D1056825
:1045E0004F000326BE40B543056015794E00B54027
:1045F0000668354305601579012D02D01579022D25
:1046000016D185684F000326BE40B54385605579B5
:104610004E00B540866835438560456801268E406A
:10462000B5434560456896798E40B6B235434560DE
:10463000C5684F000326BE40B543C560D5794E001E
:10464000B540C6683543C560491C1029BFD3F0BDCD
:10465000F0B5002300244D07ED0E02FA05F3CE104D
:1046600000F1200555F826504E07F70E0F26BE40E4
:10467000B543CF1000F1200646F82750CE1000F1C8
:10468000200555F8265045EA0304CE1000F1200518
:1046900045F82640F0BD4183704701837047000014
:1046A0000EB59C4991ED020A8DED020A91ED000ACA
:1046B000BDEEC00A8DED000A91ED010ABDEEC00A03
:1046C0008DED010A94490978012957D19349097858
:1046D00007290DD18F4991ED000ABDEEC00A10EEF9
:1046E000101A8F4A1268C2F5B462511A8D4A1160CD
:1046F0008A4909780C2903D0884909780D2922D1E3
:10470000844991ED000ABDEEC00A10EE101A844AE9
:104710001268524202F24132511A41F2941211448B
:10472000804A116080490968A1F21311794A92ED1B
:10473000010ABDEEC00A10EE102A891A41F678620D
:1047400011447A4A1160734991ED020A8DED020A13
:1047500091ED000ABDEEC00A10EE101A714A1268FF
:10476000114400916B4991ED010ABDEEC00A10EEB3
:10477000101A6E4A126811440191C6E06649097820
:1047800002293DD1634991ED000ABDEEC00A10EE49
:10479000101A634A1268524202F24132511A41F22F
:1047A000941211445F4A11605F490968A1F2131124
:1047B000584A92ED010ABDEEC00A10EE102A891A7D
:1047C00041F678621144594A1160524991ED020A4A
:1047D0008DED020A91ED000ABDEEC00A10EE101A2E
:1047E000504A1268114400914A4991ED010ABDEE08
:1047F000C00A10EE101A4D4A12681144019184E06B
:1048000045490978032940D144490978032921D130
:10481000404991ED000ABDEEC00A10EE101A404A60
:104820001268524202F24132511A41F2941211447A
:104830003C4A11603C490968A1F2DB11354A92ED0E
:10484000010ABDEEC00A10EE102A891A01F5FA51CC
:10485000364A11602F4991ED020A8DED020A91ED61
:10486000000ABDEEC00A10EE101A2E4A126811445A
:104870000091284991ED010ABDEEC00A10EE101A10
:104880002A4A1268114401913FE02349097804291A
:104890003BD1204991ED000ABDEEC00A10EE101A7E
:1048A0001F4A1268524202F24132511A41F29412E6
:1048B00011441C4A11601C490968A1F2DB11154A18
:1048C00092ED010ABDEEC00A10EE102A891A01F518
:1048D000FA51164A11600F4991ED020A8DED020A54
:1048E00091ED000ABDEEC00A10EE101A0D4A1268D2
:1048F00011440091074991ED010ABDEEC00A10EE86
:10490000101A0A4A1268114401919DE80E0080E8CD
:104910000E000EBD8C070020100000201C07002098
:1049200048000020500000204C00002054000020CF
:1049300010B500F021F89FED0F0A00F037F80021C4
:10494000084600F05FF8142001F041FF9FED090ACE
:1049500000F02CF80021084600F054F8142001F073
:1049600036FF9FED040A00F021F80021084600F010
:1049700049F810BD0000000000B585B0122000907D
:1049800002208DF80A0000208DF808008DF809003B
:1049900055208DF80B00FF218DF80C106946024858
:1049A000FDF730FC05B000BD0068004000B52DEDFE
:1049B000028B87B0B0EE408A8DED068A12200190FE
:1049C00004208DF80E0000208DF80C008DF80D00ED
:1049D0009DF818008DF80F009DF819108DF8101033
:1049E0009DF81A108DF811109DF81B108DF81210FB
:1049F00001A90348FDF706FC07B0BDEC028B00BD22
:104A000000680040F0B52DED048B85B007460E46DA
:104A100000240025384603F068F941EC190B9FED9E
:104A2000220B53EC102B03F017FA41EC180B03F098
:104A30002DF94442304603F058F941EC190B9FED33
:104A40001C0B53EC102B03F007FA41EC180B03F08E
:104A50001DF945421220009008208DF80A00002020
:104A60008DF808008DF80900E0B28DF80B00210ADE
:104A70008DF80C10210C8DF80D10210E8DF80E10F4
:104A8000E9B28DF80F10290A8DF81010290C8DF855
:104A90001110290E8DF8121069460748FDF7B2FB78
:104AA00005B0BDEC048BF0BD27A089B0E1A9294079
:104AB0008E06F01648102940006800400B4A116825
:104AC0004FF0E02252694FF0E0239B69D21A4FF475
:104AD0007A735A434FF0E0235B69B2FBF3F201EBC8
:104AE0004103C3EBC11302EBC30070470C0000206D
:104AF00010B5044604EB44001B4901EB800090ED27
:104B0000000A04EB440001EB800080ED010AFFF78E
:104B1000D5FF00EE100AB8EE400ADFED140A80EE71
:104B2000201A04EB4400104901EB800080ED001ACC
:104B300004EB440001EB800090ED000A04EB44001C
:104B400001EB8000D0ED010A30EE600A04EB440076
:104B500001EB800080ED020A04EB440001EB8000D1
:104B600090ED020A10BD00003C07002000007A44CE
:104B700000BFFEE71CB50121042000F0ABF90F20B7
:104B8000009001208DF8040000208DF8060003201D
:104B90008DF8050001208DF8070069460348FFF7EE
:104BA0000FFD0F210148FFF778FD1CBD00080240F2
:104BB0001848008A401C1749088208468088401C13
:104BC00000B288800846C088401C00B2C8800846F1
:104BD0000089401C00B2088108464089401C00B290
:104BE000488108468089401C00B288810846C089F7
:104BF000401C00B2C88108460078022804DB084641
:104C00004088401C488004E002480078401C01496C
:104C100008707047E808002000BFFEE710B5FEF7F7
:104C20001BFA00200649086048608860C8600C468E
:104C3000E368A26861682068FFF75EFB10BD0000B2
:104C4000680900207047000070B5002100230F2282
:104C5000C4781CB3174C246804F4E064C4F5E06421
:104C6000C4F30721C1F10404E3B20A4144789C4033
:104C7000E1B28478144021430C07210E0E4C0578D4
:104C80006155047804F01F050124AC4005786D11CE
:104C9000AD0005F1E025C5F8004109E0047804F015
:104CA0001F050124AC40054D0678761145F82640D5
:104CB00070BD00000CED00E000E400E080E100E0E9
:104CC00002490143024A1160704700000000FA05E2
:104CD0000CED00E010B5002400210A48B0F90000F6
:104CE00000F0D8F8084890ED0D0ABDEEC00A10EEAD
:104CF000101A064800F00CF80446204601F0D6FFD2
:104D000010BD0000840000207808002088000020EA
:104D1000F0B502460B46002400250026D362576AF0
:104D2000D06A3F1A5763506B002801DD506B01E0D9
:104D3000506B40429769B84202DA0027576327E078
:104D4000506B002801DD506B01E0506B4042176A48
:104D5000B84201DA01211BE0D2E907070744506B92
:104D6000002801DD506B01E0506B404287420EDDB0
:104D7000D769506B002801DD506B01E0506B404259
:104D8000381A176A3844D76990FBF7F100E0002120
:104D9000D76B506B00FB0177D7635769D06BB84274
:104DA00002DD5769D76307E057697F42D06BB8428D
:104DB00002DA50694742D7631768506B00FB07F46B
:104DC0005768D06B00FB07F5D2E90A70381A97686C
:104DD00000FB07F6642094FBF0F0642795FBF7F7DF
:104DE0003844642796FBF7F707449763D768906BBE
:104DF000B84202DDD768976305E01769906BB84247
:104E000001DA17699763D76A9762576B1763906BDC
:104E1000F0BD000010B5002400210B48B0F90000DF
:104E200000F042F80948C16A0948FFF771FF0446DB
:104E30000648D0ED0D0AB0EE600A2246002101209E
:104E400001F0ECFC10BD000080000020780800207C
:104E5000C800002010B5002400210B48B0F9000064
:104E600000F02CF80948016B0948FFF751FF044690
:104E70000648D0ED0D0AB0EE600A2246012100205E
:104E800001F0CCFC10BD000082000020780800205A
:104E90000801002001EB4102024B03EB8212506239
:104EA000704700008800002001EB4102024B03EB39
:104EB00082125066704700008800002001EB41021A
:104EC000024B03EB8212C2F8A40070478800002056
:104ED0007047000029B1064A12680243044B1A6069
:104EE00004E0034A12688243014B1A6070470000D5
:104EF0003038024029B1064A12680243044B1A6056
:104F000004E0034A12688243014B1A6070470000B4
:104F10004038024029B1064A12680243044B1A6025
:104F200004E0034A12688243014B1A607047000094
:104F30002038024029B1064A12680243044B1A6025
:104F400004E0034A12688243014B1A607047000074
:104F50004438024029B1064A12680243044B1A60E1
:104F600004E0034A12688243014B1A607047000054
:104F700024380240F0B5002100220024022500263A
:104F80000223324F3F6807F00C0121B1042905D0FC
:104F9000082937D105E02E4F076036E02D4F076016
:104FA00033E02A4F3F1F3F68C7F38056274F3F1F0C
:104FB0003F6807F03F036EB1264FB7FBF3F7DFF80A
:104FC0008CC0ACF1040CDCF800C0CCF3881C07FBEF
:104FD0000CF40CE01E4FB7FBF3F7DFF870C0ACF138
:104FE000040CDCF800C0CCF3881C07FB0CF4174F52
:104FF0003F1F3F68C7F301477F1C7D00B4FBF5F7F7
:10500000076002E0124F076000BF00BF0F4F3F680C
:1050100007F0F0010909104F7A5C0768D740476034
:105020000A4F3F6807F4E051890A0B4F7A5C4768E2
:10503000D7408760054F3F6807F46041490B064F32
:105040007A5C4768D740C760F0BD0000083802406E
:105050000024F40000127A007000002070B50546AC
:105060000024194800F0CEF8044654BB17480068E5
:1050700020F44070154908600846006840F400704C
:1050800008600846006820F0F800086008460068DC
:1050900040EAC50008600846006840F00200086069
:1050A0000846006840F480300860074800F0AAF81D
:1050B0000446012C05D00548006820F00200034991
:1050C0000860204670BD0000400D0300103C024007
:1050D00001461C48814201D2002070471A48814293
:1050E00001D20120F9E71948814201D20220F4E7F8
:1050F0001748814201D20320EFE71648814201D2CE
:105100000420EAE71448814201D20520E5E713486C
:10511000814201D20620E0E71148814201D20720F6
:10512000DBE71048814201D20820D6E70E488142D1
:1051300001D20920D1E70D48814201D20A20CCE7F3
:105140000B20CAE7004000080080000800C00008EB
:105150000000010800000208000004080000060822
:105160000000080800000A0800000C0800000E08F3
:1051700000210E48016801F4803008B10120704719
:1051800001F0100008B10220F9E701F0200008B199
:105190000220F4E701F0400008B10220EFE701F03F
:1051A000800008B10220EAE70020E8E70C3C02405A
:1051B0000348006840F00040014908607047000063
:1051C000103C024030B503460C461546002206E06E
:1051D000184600F007F844F822001B1D521CAA4292
:1051E000F6D330BD01460868704700000248034905
:1051F000086003480860704723016745043C02408B
:10520000AB89EFCD70B5044600BFFFF7B1FF05468F
:10521000012D00D005E00A2001F0E6FA641E002C02
:10522000F3D100BF04B9FF25284670BD2DE9F04732
:1052300004460E4617464FF000080025A946B4F173
:10524000006F02D304F0030008B1BDE8F087FFF758
:10525000CDFF1D48006820F480601B49086025468A
:1052600004EB87091948854214D210E02846FFF75D
:10527000B9FF401C50B12846FFF72AFF8246FFF7CE
:10528000EDFE8046B8F1000F01D002E02D1D4D4526
:10529000ECD300BFB8F1000F0BD107E02046316816
:1052A00000F016F800B103E0241D361D4C45F5D37F
:1052B00000BF0548006840F4806003490860FFF7BC
:1052C00077FF00BFC1E70000003C02400000FF1F65
:1052D00070B505460E46FF20FFF794FF0446E4B97B
:1052E0000F48006820F440700D49086008460068C7
:1052F00040F4007008600846006840F00100086053
:105300002E60FF20FFF77EFF0446012C05D00448E5
:10531000006820F0010002490860204670BD0000CE
:10532000103C0240704700002DE9F0412DED068B46
:1053300082B09FEDEC0AB0EE408AEB49086802F0BB
:10534000D4FC41EC1A0B9FEDE90B53EC102B02F04F
:1053500083FD41EC190B02F099FCE6490860E24933
:10536000486802F0C2FC41EC1A0B9FEDE00B53ECD5
:10537000102B02F071FD41EC190B02F087FCDD49A6
:105380004860D949886802F0B0FC41EC1A0B9FEDE7
:10539000D70B53EC102B02F05FFD41EC190B02F020
:1053A00075FCD4498860D049C86802F09EFC41EC85
:1053B0001A0B9FEDCE0B53EC102B02F04DFD41EC80
:1053C000190B02F063FCCB49C860FDF745FEC948E4
:1053D0000068002802DDC748006802E0C548006890
:1053E0004042C4494968002902DDC249496802E0D7
:1053F000C0494968494288420ADDBE480068002821
:1054000002DDBC4800680DE0BA480068404209E08F
:10541000B8484068002802DDB648406802E0B54858
:1054200040684042B3498968002902DDB149896872
:1054300002E0B0498968494288422BDDAD480068E6
:10544000002802DDAB48006802E0AA48006840423C
:10545000A8494968002902DDA649496802E0A54932
:105460004968494288420ADDA2480068002802DDF6
:10547000A048006818E09F480068404214E09D483A
:105480004068002802DD9B4840680DE0994840686C
:10549000404209E097488068002802DD954880680E
:1054A00002E09448806840429249C968002902DDC0
:1054B0009049C96802E08F49C968494288426DDD58
:1054C0008C480068002802DD8A48006802E08948AC
:1054D0000068404287494968002902DD85494968DA
:1054E00002E084494968494288420ADD81480068EF
:1054F000002802DD7F4800680DE07E4800684042D9
:1055000009E07C484068002802DD7A48406802E0F3
:1055100078484068404277498968002902DD75492A
:10552000896802E073498968494288422BDD7148E5
:105530000068002802DD6F48006802E06D480068DE
:1055400040426C494968002902DD6A49496802E025
:1055500068494968494288420ADD6648006800286F
:1055600002DD6448006823E06248006840421FE0B2
:1055700060484068002802DD5E48406818E05D48E9
:105580004068404214E05B488068002802DD5948CA
:1055900080680DE057488068404209E05548C0687F
:1055A000002802DD5348C06802E05248C06840420B
:1055B0008046404602F099FB41EC190B9FED4E0BE3
:1055C00053EC102B02F046FD3BD2404602F08DFB1F
:1055D00041EC1A0B53EC1A2B9FED470B51EC100BBF
:1055E00002F0FCF941EC190B02F012F908EE100A76
:1055F000404890ED000AB8EEC00A20EE080ABDEE61
:10560000C00A80ED000A90ED010AB8EEC00A20EE53
:10561000080ABDEEC00A80ED010A90ED020AB8EE5C
:10562000C00A20EE080ABDEEC00A80ED020A90ED25
:10563000030AB8EEC00A20EE080ABDEEC00A80EDEB
:10564000030A2F480068012802D1FFF7E7FA0BE0B0
:10565000DFF8A0C0DCF80C30DCF80820DCF804101F
:10566000DCF80000FEF748FE2248046845688668BA
:10567000C76824480078401C224908700846007812
:105680001E282AD133462A4621461FA00097FAF742
:1056900011FE264890ED0D0ABDEEC00A10EE103A3C
:1056A000026BC16A22A0FAF705FE2448B0F9003067
:1056B0002348B0F900202348B0F9001022A0FAF7DF
:1056C000F9FD2C4803682C4802682C4801682CA07E
:1056D000FAF7F0FD00200B49087002B0BDEC068B14
:1056E000BDE8F0810000000058090020AE47E17AD3
:1056F00014AE09406809002000000000004CCD40B5
:105700002C0700203807002076313A202025640934
:1057100076323A202025640976333A202025640920
:1057200076343A20202564090D0A0000780800200C
:1057300025640925640925640D0A00008400002001
:105740008200002080000020746172676574583AFE
:10575000202025640974617267657459313A2020EC
:10576000256409746172676574413A2020256409D3
:105770000D0A00004C0000204800002044000020DA
:10578000445433355F44617461413A2020256409F3
:10579000445433355F44617461423A2020256409E2
:1057A000445433355F44617461433A2020256409D1
:1057B0000D0A00000CB500200190009034480068EC
:1057C00040F480303249086000BF3148006800F47E
:1057D000003000900198401C0190009818B9019881
:1057E000B0F5A04FF1D12A48006800F4003010B1A4
:1057F0000120009001E0002000900098012846D18F
:1058000023484030006840F0805021494031086012
:105810002048006840F440401E4908601C48083099
:1058200000681B49083108600846006840F40040E1
:1058300008600846006840F4A05008601648091F38
:105840000860081F006840F08070091F086000BFF2
:105850000F48006800F000700028F9D040F2057091
:105860000E4908600A480830006820F00300084923
:10587000083108600846006840F00200086000BF78
:1058800003480830006800F00C000828F8D10CBD6F
:10589000003802400070004008544007003C0240BD
:1058A0002DE9F04F89B004460D4616461F46DDE946
:1058B00014ABDDE91289202101A8FAF729FE019431
:1058C000029503960497CDF81480CDF818908DF8C2
:1058D0001CA0CDF820B001A8FCF778FD09B0BDE808
:1058E000F08F042808D14FF0E021096941F004014C
:1058F0004FF0E022116107E04FF0E021096921F04B
:1059000004014FF0E02211617047000010B5044817
:105910000068401C0249086000F076F810BD0000E5
:105920000C0000207FB56846FFF724FB4FF47A7126
:105930000198B0FBF1F4E4082146481EB0F1807FE5
:1059400000D31BE0481E4FF0E022506150170F2299
:10595000002807DA13071E0E0B4B00F00F052D1F52
:105960005E5503E013071D0E084B1D5400BF0020B9
:105970004FF0E02290610720106100BF6FF004003B
:10598000FFF7AFFF7FBD000018ED00E000E400E08E
:1059900010B51548006840F47000134908601348BA
:1059A000006840F001001149086000200F490831EB
:1059B00008600E4800680E4908400C4908600D4810
:1059C000091D0860081F006820F48020091F086076
:1059D000002006490C310860FFF7ECFE4FF0006034
:1059E00001498039086010BD88ED00E000380240B0
:1059F000FFFFF6FE10300024024800210160818084
:105A000070470000000000201948808840F2E7310C
:105A1000884205DA16488088401C1549888026E0AF
:105A20000020134988800846C0783B2804DA0846DD
:105A3000C078401CC8701AE000200D49C8700846A4
:105A400080783B2804DA08468078401C88700EE095
:105A500000200749887008460088172804DA08469D
:105A60000088401C088002E000200149088070473F
:105A700000000020F0B50C46154600210022068CDF
:105A80004FF6FE773E400684018B028C4FF60C7673
:105A900031407E1C06EA03162E4331434FF6F5765D
:105AA000324044F00106324301830284F0BDF0B578
:105AB0000C461546002100220026078C4FF6EF7C8D
:105AC00007EA0C070784018B028C4FF6FF7707EA81
:105AD000041640F6FF4739404FF6FF7707EA0337D1
